:020000040000FA
:10000000C04EFF1F69140000FB22000001CC00005D
:10001000751400007714000079140000000000003F
:100020000000000000000000000000007B14000041
:100030007D1400000000000087CB0000ED070000E9
:10004000712C0000872C00009D2C0000B32C0000B8
:10005000E12C0000F72C00000D2D0000232D0000E6
:10006000392D00004F2D0000652D00007B2D000074
:10007000912D0000A72D0000BD2D0000D32D000004
:100080008314000083140000831400008314000014
:1000900083140000831400001D6B00008314000013
:1000A000854E0000A54E0000C35C0000E35C00002C
:1000B000035D0000DF2100008314000083140000B2
:1000C00083140000831400008314000083140000D4
:1000D0008314000003220000831400008314000036
:1000E00083140000831400008314000083140000B4
:1000F000831400005767000083140000BB670000F2
:10010000831400001F68000083140000836800004F
:1001100083140000FD680000831400006169000082
:1001200083140000231A0000331A00008314000017
:1001300083140000831400002F400000954000004D
:10014000FB400000831400003D56000083140000B3
:10015000515200006D52000089520000A55200006B
:100160008314000083140000831400008314000033
:100170001B33000037330000831400008314000099
:1001800083140000FB270000612800007560000058
:1001900083140000DD50000083140000614600005D
:1001A00087460000AD460000D3460000F946000037
:1001B00083140000831400008314000083140000E3
:1001C00083140000831400008314000083140000D3
:1001D00083140000831400008314000083140000C3
:1001E00083140000831400008314000083140000B3
:10040000FFFFFFFFFFFFFFFFFFFFFFFFFEFFFFFFFD
:1004100000F002F800F065F80AA090E8000C8244B1
:100420008344AAF10107DA4501D100F05AF8AFF28E
:10043000090EBAE80F0013F0010F18BFFB1A43F0C2
:10044000010318475C7502007C7502000A444FF0F6
:10045000000C10F8013B13F0070408BF10F8014B23
:100460001D1108BF10F8015B641E05D010F8016B68
:10047000641E01F8016BF9D113F0080F1EBF10F8CC
:10048000014BAD1C0C1B09D16D1E58BF01F801CBEF
:10049000FAD505E014F8016B01F8016B6D1EF9D572
:1004A0009142D6D370470000002300240025002687
:1004B000103A28BF78C1FBD8520728BF30C148BFC7
:1004C0000B6070471FB524F025FC24F0E9FB040005
:1004D0000020002124F008FC401C60601FBD10B506
:1004E00010BD24F0B8FB1146FFF7ECFF00F0E0F878
:1004F00024F0E8FB03B4FFF7F2FF03BC24F0ECFBAD
:10050000C0BA70477CB5054609F00CFF23F059FCD2
:1005100000F059FB1AF0A7FA15A008F007FF0CF03D
:1005200085FB10F0D1FF14203F214FF4005300222F
:10053000CDE90010144915A00BF0B2FD044614B12A
:1005400020460BF03EFD7CBD1CB5142008210B029B
:100550000022CDE90010AFF253010EA00BF0A0FD78
:10056000044614B120460BF02CFD00201CBD0000F9
:100570005443502F495020696E697469616C697ADF
:100580006564210A00000000210700007561727493
:1005900033000000696E69740000000008B513A004
:1005A000002316A216A1009018460CF0E9FD18B918
:1005B00014A008F0BBFE02E01AA008F0B7FE08BDC8
:1005C00008B564200BF0AEFE08A000230BA20CA11E
:1005D000009018460CF0D4FD18B90AA008F0A6FE49
:1005E00002E010A008F0A2FE08BD00003139322E52
:1005F0003136382E312E3131323A2F006E6673008B
:100600002F0000004E465376332046696C65205318
:10061000797374656D20696E697469616C697A6556
:1006200064210A004E465376332046696C65205398
:10063000797374656D20696E697469616C7A61742F
:10064000696F6E206661696C6564210A00000000B4
:1006500004460D461AA008F069FE214622A008F0C3
:1006600065FE294625A008F061FE00BFFEE710B533
:1006700000F0C4F808F08AFE06F064FA0BF02DF8DA
:100680000CF072F92249234808F0E2FF0BF0F0F970
:1006900006F0DAFAFFF758FF14F057F81EA013F02F
:1006A0005BFC0CF06DF906F005FD0BF002FA10BDD5
:1006B00010B50CF051FAFFF7DAFF002010BD000072
:1006C0000A0D2057726F6E6720706172616D6574DC
:1006D00065722076616C7565206465746563746508
:1006E00064206F6E0D0A000020202020202020664C
:1006F000696C65202025730D0A0000002020202051
:100700002020206C696E65202025640D0A00000001
:1007100000000120C04EFF1F75617274350000009B
:100720002DE9F84380461DA420A524A006F03AFA3E
:100730000646002E2FD00321304606F0D0FA21A025
:1007400008F0F4FD26E01DE09DF80000302802D0FE
:10075000312816D10AE0204623F081FF07463B46A8
:1007600022460021304606F063FB0AE0284623F0CB
:1007700076FF07463B462A460021304606F058FBE6
:1007800000BF00BF01236A460021304606F022FB6D
:100790000128D9D0D7E7BDE8F883000074686973F1
:1007A0002069732074657374310D0A00746869736D
:1007B0002069732074657374320D0A007561727458
:1007C000330000006F70656E206465766963652094
:1007D00075617274332073756363656564210D0AF6
:1007E0000000000000200D490860704710B508F0B7
:1007F000CBF906F0B6F908F0D6F910BD10B5FFF741
:10080000F1FF01F06AFD00F0E7FA00F099FC00F05A
:10081000CCFC03A008F0FFFD10BD000008ED00E0D7
:10082000756172743500000008B5002000906A46BA
:1008300001216E48006880B202F0F0FBBDF80000B4
:1008400010F0040F01D0012008BD0020FCE738B5EE
:10085000054600246548056002F08DFB4FF4004218
:1008600000216248006880B202F0A5FB0A2001F076
:1008700038FD00BF0A2001F034FD601C84B24FF641
:10088000FF7000906A4602215848006880B202F06A
:10089000C5FBBDF80000222800D101E00A2CE9DBED
:1008A00000BFBDF80000222801D0012038BD6A46F3
:1008B00000214E48006880B202F0B0FB6A46012178
:1008C0004A48006880B202F0A9FB6A460221474804
:1008D000006880B202F0A2FB6A4603214348006828
:1008E00080B202F09BFB6A4604214048006880B257
:1008F00002F094FB6A4605213C48006880B202F091
:100900008DFB6A4606213948006880B202F086FBFA
:100910006A4607213548006880B202F07FFB6A46CC
:1009200015213248006880B202F078FB6A461B212C
:100930002E48006880B202F071FB6A461E212B48E7
:10094000006880B202F06AFB6A461E2127480068F0
:1009500080B202F063FB4FF49052002123480068FC
:1009600080B202F028FB6A4600212048006880B26D
:1009700002F054FB00BF642001F0B3FC601C84B2A1
:100980001E2C00DD0BE06A4601211848006880B289
:1009900002F044FBBDF8000010F0200FEBD000BFC8
:1009A000FFF742FF002081E708B56A461F210F4884
:1009B000006880B202F032FBBDF8000010F0100FAA
:1009C00001D0012008BD0020FCE708B56A461F21C0
:1009D0000648006880B202F021FBBDF8000010F06C
:1009E000040F01D0012008BD0020FCE70000FF1F1C
:1009F00010B500208249086008F0C6F8814802F06E
:100A00001FFC044624B17E4804607F4823F01DF992
:100A100008F0C9F810BD7CB505467CA008F086FC3E
:100A200004220021012003F0A3FB04220121084637
:100A300003F09EFB04220521002003F099FB042211
:100A40000C21002003F094FB04220D21002003F070
:100A50008FFB04220E21002003F08AFB04220F21C9
:100A6000002003F085FB04221021002003F080FB0E
:100A700004221121002003F07BFB0120FFF7E7FE99
:100A800004462CB1214668A008F050FC01207CBD32
:100A9000FFF7CAFE30B96CA008F048FC00215A48A4
:100AA00023F0DEF86D480090FFF78FFF8DF804000B
:100AB000FFF77AFF80F001008DF80500684602F02C
:100AC000E2FAAFF2D30002F015FC032002F0DFFBE4
:100AD0000020DCE7024600207047014600207047F6
:100AE00010B50446002010BD10B50446002010BD0E
:100AF00070B506460D461446012D0AD12CB10622CA
:100B00005649204608F0B9F802E04FF0FF3070BDBA
:100B100000E000BF00BF0020F9E72DE9F04180466A
:100B200000270025002636480068F0B1002234482E
:100B3000006881B202201BF071F9054685B12C4690
:100B400008E062892F4B9919606808F096F860896F
:100B500007442468002CF4D100202949086004E0EF
:100B60003FA008F0E3FB00BFFEE72846BDE8F081A8
:100B70002DE9F04107460E460025344608E062891B
:100B80003D4B5819616808F078F86089054424687D
:100B9000002CF4D1FFF748FE30B900211A4823F0A9
:100BA0005FF80120BDE8F0810121174823F058F8D3
:100BB000A9B2314802F0F4FA00BF02F09FFB00280E
:100BC000FBD00020EEE710B52C480F4988622C4876
:100BD000C8622C4808632C4848632C4888632C481A
:100BE000C86300200864AFF2CD000867AFF27F0051
:100BF000486728A1044823F01EF8002010BD00001B
:100C00000C00FF1F9805FF1F2005FF1F72745F6B0C
:100C1000737A383034315F696E6974206973206388
:100C2000616C6C65640D0A006B737A383034312066
:100C3000696E6974206661696C65642120636F6404
:100C4000653A25640D0A00006E6F20776972652091
:100C5000636F6E6E65637465640D0A000400FF1FA8
:100C6000646D393030302072783A206E6F207062B7
:100C700075660D0A00000000740BFF1F170A0000C4
:100C8000D50A0000DB0A0000E10A0000E90A0000C2
:100C9000F10A00006530000001B507F075FF6949F1
:100CA000C1F800D0684811F073FF07F07CFF08BD61
:100CB0002DE9FF4104460D4654B900273C23634A01
:100CC00063A168A008F032FB00BF002FFDD000BF79
:100CD00055B900273D235D4A6AA162A008F026FBB2
:100CE00000BF002FFDD000BFE06CC0F39320C0B266
:100CF0008DF804002868B0F5165F03D0B0F5E13F29
:100D000006D102E04FF4165602E04FF4E13600BF80
:100D100000BF314648F6D84005F0D2FC9DF80400EB
:100D2000012105F07DFB002005F0CEF907469DF876
:100D30000400394605F0B5FB9DF80400554905F05F
:100D4000ADFC9DF804000122022105F0E8FB002023
:100D500004B0BDE8F0812DE9F04104460D46174688
:100D600054B9002658234C4A39A13EA008F0DEFAB7
:100D700000BF002EFDD000BF102D09D0112D0FD1C6
:100D8000E16CC1F393200022022105F0C8FB07E0CB
:100D9000E16CC1F393200122022105F0C0FB00BFEA
:100DA00000BF0020BDE8F08170B504460D46E16C3F
:100DB000C1F39320294605F092F9012070BD014648
:100DC0004FF0FF301F4A12682AB11E4A126810887D
:100DD00000221C4B1A6070471CB54FF4E13149F2F8
:100DE000DD0005F06DFC4FF4E1300090019820F437
:100DF00080700190019820F00F0008300190019858
:100E000020F0C0000190019820F03000019001987E
:100E100020F4007001900521019861F39D2001905C
:100E20001E48094948641E4808650846DDE9001265
:100E3000C0E91212002340F243121AA111F028FE59
:100E40001CBD00001000FF1F5011FF1F744D020059
:100E500073657269616C20213D2052545F4E554C80
:100E60004C0000002825732920617373657274207B
:100E70006661696C65642061742025733A2564207D
:100E80000A00000063666720213D2052545F4E55E2
:100E90004C4C0000990C0000864D0200604D020091
:100EA000D011FF1F756172743500000001B507F0A5
:100EB0006BFEBDF80000D7490880D749C1F800D0C3
:100EC000D64811F065FE07F06EFE08BD01B507F0CB
:100ED0005BFEBDF80000D2490880D249C1F800D0BD
:100EE000D14811F055FE07F05EFE08BD2DE9FF4127
:100EF00004460D4654B900274E23CC4ACCA1D1A0BC
:100F000008F014FA00BF002FFDD000BF55B900272C
:100F10004F23C64AD3A1CBA008F008FA00BF002F88
:100F2000FDD000BFE06CC0F39320C0B28DF8040088
:100F30002868B0F5165F03D0B0F5E13F06D102E0B6
:100F40004FF4165602E04FF4E13600BF00BF3146C1
:100F500048F6D84005F0B4FB9DF80400012105F0E7
:100F60005FFA002005F0B0F807469DF80400394606
:100F700005F097FA9DF80400BE4905F08FFB9DF837
:100F800004000122022105F0CAFA002004B0BDE8E5
:100F9000F0812DE9FF4104460D4654B900276B232B
:100FA000B54AA3A1A7A008F0C1F900BF002FFDD04A
:100FB00000BF55B900276C23AF4AAAA1A1A008F031
:100FC000B5F900BF002FFDD000BFE06CC0F3932047
:100FD000C0B28DF804002868B0F5165F03D0B0F5F4
:100FE000E13F06D102E04FF4165602E04FF4E1363D
:100FF00000BF00BF314648F6D84005F061FB9DF8C0
:101000000400012105F00CFA002005F05DF8074608
:101010009DF80400394605F044FA9DF8040097490C
:1010200005F03CFB9DF804000122022105F077FA4F
:10103000002004B0BDE8F0812DE9F04104460D46E2
:10104000174654B9002687238D4A79A17DA008F060
:101050006DF900BF002EFDD000BF102D09D0112D5D
:101060000FD1E16CC1F393200022022105F057FA61
:1010700007E0E16CC1F393200122022105F04FFA51
:1010800000BF00BF0020BDE8F0812DE9F04104461B
:101090000D46174654B9002698237A4A64A169A0E0
:1010A00008F044F900BF002EFDD000BF102D09D07C
:1010B000112D0FD1E16CC1F393200022022105F024
:1010C0002EFA07E0E16CC1F393200122022105F022
:1010D00026FA00BF00BF0020BDE8F08170B50446CD
:1010E0000D46E16CC1F39320294604F0F8FF01207E
:1010F00070BD70B504460D46E16CC1F393202946DE
:1011000004F0EDFF012070BD10B502460021481E1D
:10111000414B1B682BB1404B1B68188800233E4C89
:10112000236010BD10B502460021481E3D4B1B68D0
:101130002BB13C4B1B68188800233A4C236010BD30
:101140001CB54FF4E13149F2CB4005F0B9FA4FF448
:10115000E1300090019820F480700190019820F017
:101160000F0008300190019820F0C0000190019814
:1011700020F030000190019820F4007001900321CC
:10118000019861F39D2001903F48244948643F48FD
:1011900008650846DDE90012C0E91212002340F29A
:1011A00043123BA111F074FC1CBD1CB54FF4E1319E
:1011B00049F6D44005F084FA4FF4E13000900198EC
:1011C00020F480700190019820F00F000830019009
:1011D000019820F0C0000190019820F030000190AB
:1011E000019820F4007001900421019861F39D2082
:1011F000019029480C494864284808650846DDE9FB
:101200000012C0E91212002340F2431224A111F08F
:101210003FFC1CBD1C00FF1F1400FF1F1412FF1F0A
:101220001E00FF1F1800FF1FD812FF1FC04D020035
:1012300073657269616C20213D2052545F4E554C9C
:101240004C00000028257329206173736572742097
:101250006661696C65642061742025733A25642099
:101260000A00000063666720213D2052545F4E55FE
:101270004C4C0000AD0E0000D04D0200CD0E000021
:10128000E04D0200EE4D0200984D02009412FF1F47
:101290007561727433000000AC4D02005813FF1FDB
:1012A00075617274340000004CF220506749C881A7
:1012B0004DF62810C8814FF4E97008804FF0FF30D8
:1012C0006349486406206349087000204870084656
:1012D000C07820F06000C8700846C07840F0E00098
:1012E000C8705D485A49486400205A4908714871DD
:1012F00000BF5848807910F0100FFAD000BF554851
:10130000807910F00C0FFAD17047524A127812F01F
:10131000C00F66D14F4A527912F0400F51D14D4A59
:10132000127812F0040F18D14A4A127B12F0010F02
:1013300001D14A4801E04FF40040464A1278C2F316
:10134000C20301229A40D1B2B0FBF1F0414A527877
:1013500012F0300F03D0400901E04FF400403D4A45
:10136000D27802F0E00212F01F0F28D15211082AA1
:1013700025D2DFE802F004080C1014181C2000EB42
:101380008002D0011CE000EB8002100218E0C0EBEC
:101390000012D00114E000EB8002500210E04FF484
:1013A000377250430CE04FF4B762504308E040F608
:1013B0009502504304E040F67132504300E000BF14
:1013C00038E0244A127902F01F02511C234AB2FB72
:1013D000F1F0204A527902F01F0202F1180148434D
:1013E00028E01C4A127802F0C002402A11D1194AA2
:1013F000527812F0010F02D14FF400401AE0154A62
:10140000127AC2F3420301229A40154BB3FBF2F069
:1014100010E0104A127802F0C002802A09D10D4A69
:10142000127B12F0010F01D10C4803E04FF4004091
:1014300000E07047064A526C012303EB1272B0FBC6
:10144000F2F2084B1A6000BFF3E7000000200540ED
:1014500000800440004006400000130180F0FA02C2
:1014600000093D002000FF1F094880470948004748
:10147000FEE7FEE7FEE7FEE7FEE7FEE7FEE7FEE744
:10148000FEE7FEE704480549054A064B70470000A1
:10149000A912000011040000C046FF1FC04EFF1F2C
:1014A000C04AFF1FC04AFF1F0246FA4850F82200F8
:1014B00050F8210010F0800F01D00020704701206B
:1014C000FCE770B5134633B1012B1CD0022B25D09D
:1014D000032B49D13DE0F04C225602F01F050124B8
:1014E000AC40EE4D560945F8264000BFE94A52F897
:1014F000202052F8212022F04002E64C54F82040EF
:1015000044F8212031E0E34A52F82020126A22F008
:101510000402E04C54F82040226226E0DD4A52F8F2
:10152000202052F8212042F04002DA4C54F82040AA
:1015300044F82120D84C225602F01F050124AC406B
:1015400055094FF0E02606EB8505C5F8004100BFC0
:101550000BE0D04A52F82020126A42F00402CD4C2F
:1015600054F82040226200E000BF00BF70BDF0B51B
:101570000446C84850F82400406A40F00300C549BA
:1015800051F824104862C34850F82400406A40F0E3
:101590000300C04951F824104862BE4850F82400A6
:1015A000806840F00300BB4951F824108860B948B6
:1015B00050F82400406A40F04000B64951F8241029
:1015C0004862B44850F82400406A40F08000B149B5
:1015D00051F824104862002211462046FFF771FF9F
:1015E000002700E07F1CAE488742FBD3A94850F893
:1015F0002400406A10F0400F01D00120F0BD00250A
:10160000A44850F82400C06C0544A24850F82400B7
:10161000806C05449F4850F82400406C05449D4868
:1016200050F82400006C05449A4850F82400C06B20
:101630000544984850F82400806B05444FF400405E
:1016400040EA55050026934850F82400C06E064431
:10165000904850F82400806E06448E4850F82400CC
:10166000406E06448B4850F82400006E06448948BA
:1016700050F82400C06D0644864850F82400806D60
:1016800006444FF4004040EA5606824850F82400D1
:10169000406A20F080007F4951F8241048627D485C
:1016A00050F82400C5627B4850F8240006630020EF
:1016B000A4E710B504467B49206851F83000006863
:1016C000784A216802EBC10149680843216852F851
:1016D000311008602068FFF74AFF6E49206851F812
:1016E0002000806820F003006A4A216852F8211027
:1016F00088601146206851F820008068617901F007
:1017000003010843216852F82110886011462068BF
:1017100051F82000006A20F00300216852F82110DF
:1017200008621146206851F82000006AA17A01F091
:1017300003010843216852F821100862114620680D
:1017400051F82000806820F00C00216852F8211028
:1017500088601146206851F820008068A1790C2229
:1017600002EA810108434B4A216852F8211088603F
:10177000207901280BD11146206851F82000006A19
:1017800040F04000216852F8211008620BE0414906
:10179000206851F82000006A00F040003D4A2168AE
:1017A00052F821100862207A60B93A49206851F84D
:1017B0002000406A40F00800364A216852F82110A3
:1017C00048620BE03349206851F82000406A20F05D
:1017D0000800304A216852F821104862607A0528D2
:1017E0007AD2DFE800F00310263E61002949206824
:1017F00051F82000406A20F00300264A216852F880
:101800002110486269E02349206851F82000406AAD
:1018100020F003001F4A216852F821104862114647
:10182000206851F82000406A216852F8211048626F
:1018300053E01849206851F82000406A20F0030066
:10184000144A216852F8211048621146206851F864
:101850002000406A40F00100216852F821104862DF
:101860003BE00C49206851F82000406A20F003005A
:10187000084A216852F8211048621146206851F840
:101880002000406A40F00200216852F821104862AE
:1018900023E021E0FC4D0200144E020080E100E054
:1018A000A0860100044E02006649206851F820001D
:1018B000406A20F00300634A216852F82110486210
:1018C0001146206851F82000406A40F0030021686A
:1018D00052F82110486200E000BF00BF10BD49B9B6
:1018E000584A52F82020D26822F01002554B53F883
:1018F0002030DA60012909D1524A52F82020D268FA
:1019000042F010024F4B53F82030DA60704773B545
:1019100084B00E4604AC2068C0F3020001900120A0
:101920008DF809008DF80A6000208DF808008DF808
:101930000B0001208DF80C0000208DF80D008DF8B3
:101940000E00002518E02368C3F38212C3F344237A
:101950002B44D9B22368C3F3C20002F009FC226809
:10196000C2F344222A44D1B22268C2F3C200002248
:1019700002F023FC681CC5B22068C0F38430A84282
:10198000E1DC01A8FFF795FE2268110EC2F3020008
:10199000FFF7A5FF2068C0F3020006B070BD10B5C8
:1019A000284B53F8203053F8223023F01F03254CE6
:1019B00054F8204044F82230224B53F8203053F89A
:1019C000223001F01F0423431E4C54F8204044F8F9
:1019D000223010BD02461B4850F82200103050F84B
:1019E0002100704771B56C462068C0F3020520687D
:1019F000C0F3C446002231462846FFF7D0FF00BF9F
:101A0000104850F82500006810F0800FF8D0002131
:101A10002846FFF7DFFF78BD11B10B4A42F82010CE
:101A2000704710B50848006810B10749086880473A
:101A300010BD10B50448406810B10349486880479C
:101A400010BD0000FC4D02002400FF1F02460729C4
:101A500028D2DFE801F004090E13181D2200506897
:101A6000F94B184350601FE05068F84B1843506022
:101A70001AE05068F64B1843506015E05068F54B7B
:101A80001843506010E05068F34B184350600BE06F
:101A90005068F24B1843506006E05068F04B184312
:101AA000506001E00120704700BF0020FBE710B547
:101AB000EC4B53F820301B6843F0A043E94C54F83A
:101AC0002040236000BFE74B53F820301B6813F021
:101AD000807FF8D0B2F5006F09D3C2F31104E14B57
:101AE00053F8203003F5086343F8214009E0DE4B4A
:101AF00003EA8244DB4B53F8203003F5086343F8D4
:101B00002140D84B53F820301B6823F0A043D54C1C
:101B100054F82040236000BFD24B53F820301B689C
:101B200013F0807FF8D110BD70B504460D461646FF
:101B3000324629462046FFF7BAFFB6F5006F41D37B
:101B4000C84850F82400803000EB0510006840F4CD
:101B50000011C44850F82400803000EB05100160EB
:101B6000C04850F82400803000EB0510006820F4D5
:101B70008001BC4850F82400803000EB0510016063
:101B8000B84850F82400803000EB0510406800F0A1
:101B90006041B44850F82400803000EB05104160EB
:101BA000B04850F82400803000EB0510406826F063
:101BB00060410843AB4951F82410803101EB051115
:101BC000486032E0A74850F82400803000EB051050
:101BD000006820F4C001A34850F82400803000EBD6
:101BE000051001609F4850F82400803000EB05107C
:101BF00040689D49C94308409A4951F824108031F2
:101C000001EB05114860974850F82400803000EB44
:101C100005104168944800EA86400143914850F815
:101C20002400803000EB051041608E4850F82400FD
:101C3000803000EB0510006820F07061894850F892
:101C40002400803000EB05100160864850F8240025
:101C5000803000EB0510006840F08061814850F84A
:101C60002400803000EB0510016070BD70B50446A3
:101C70007E49206851F8300000687C4A216802EBF8
:101C8000C10149680843216852F83110086075495C
:101C9000206851F82000406840F40050714A2168E3
:101CA00052F8211048601146206851F82000006861
:101CB00020F00040216852F8211008601146206889
:101CC00051F82000006840F00070216852F821109F
:101CD000086000BF6349206851F82000006810F0D8
:101CE000007FF7D1206851F82000006840F0A04044
:101CF0005C4A216852F82110086000BF59492068E9
:101D000051F82000006810F0807FF7D0002526E011
:101D10000021544A206852F82000803000EB051062
:101D20000160206852F82000803000EB051041600F
:101D3000206852F82000803000EB05108160206898
:101D400052F82000803000EB0510C160484920683F
:101D500052F8200000F5086040F825106D1C102D89
:101D6000D6D34049206851F82000006840F4803004
:101D70003C4A216852F8211008602179394B2268C9
:101D800053F82200FFF762FE3649206851F8200020
:101D9000006820F0A040334A216852F82110086002
:101DA0001146206851F82000006820F0A04021680A
:101DB00052F82110086000BF2A49206851F820001D
:101DC000006810F0807FF7D100BF2649206851F8E5
:101DD0002000006810F0006FF7D170BD73B582B0BD
:101DE0000E4602AC2068C0F3020000908DF804603B
:101DF0006846FFF73BFF00250CE02368C3F382121F
:101E0000C3F344232B44D9B22368C3F3C20002F0C6
:101E1000AFF96D1C2068C0F38430A842EDD820686B
:101E2000C0F3020004B070BD02460E4850F8220014
:101E3000803000EB01100068C0F30363082B00D072
:101E4000C3B90020704700000400A47C0200926324
:101E5000020092310400A4180200921302009209B9
:101E600002009204184E02000000FC1F204E0200E7
:101E7000FFFF0300012070472DE9FC4304460D4697
:101E800017469846DDF82490002000900190102D10
:101E900002D2B9F1080F02DD0120BDE8FC8329461A
:101EA0002046FFF7C1FF08B10220F6E7E44850F8EA
:101EB0002400006B0121A9400843E14951F8241096
:101EC0000863002615E0042E09D218F80600C6F1B2
:101ED0000301C900884000990843009008E018F801
:101EE0000600C6F10701C900884001990843019026
:101EF000761C4E45E7D3D24850F82400803000EBE2
:101F0000051000998160CE4850F82400803000EB25
:101F100005100199C160CA4850F82400803000EBD8
:101F20000510006820F47021C54850F82400803066
:101F300000EB05100160C24850F82400803000EB2F
:101F4000051000684FF4702101EA09410843BC49BB
:101F500051F82410803101EB05110860B84850F8A1
:101F60002400803000EB0510006820F48011B44894
:101F700050F82400803000EB05100160B7F5006FC9
:101F800031D3AF4850F82400803000EB05100068D2
:101F900040F48001AA4850F82400803000EB05107E
:101FA0000160A74850F82400803000EB051041681C
:101FB00027F060400143A24850F82400803000EB35
:101FC000051041609E4850F82400803000EB051059
:101FD000006840F400119A4850F82400803000EB6B
:101FE0000510016021E0964850F82400803000EB95
:101FF00005104068934901EA87410843904951F828
:102000002410803101EB051148608D4850F8240000
:10201000803000EB0510006820F40011884850F86B
:102020002400803000EB05100160854850F8240042
:10203000803000EB0510006820F07061804850F897
:102040002400803000EB051001607D4850F824002A
:10205000803000EB0510006840F04061784850F88F
:102060002400803000EB05100160002015E711B15D
:10207000754A42F82010704770B504460D46164662
:1020800036B1012E20D0022E0ED0032E38D127E0FB
:102090006B4850F82400816A0120A84081436848B9
:1020A00050F8240081622CE0654850F82400816AD1
:1020B0000120A8400143624850F82400816263492E
:1020C000085700F0B0F81CE05D4850F82400816A21
:1020D0000120A84081435A4850F82400816210E052
:1020E000574850F82400816A0120A8400143544811
:1020F00050F8240081625549085700F094F800E038
:1021000000BF00BF70BDFCB504460D461E46002052
:10211000009001904A4850F82400803000EB0510F0
:102120000068C0F3036717F0010F01D00220FCBD67
:10213000434850F82400006B4FF0010C0CFA05FCEA
:1021400010EA0C0F45D03E4850F82400D0F830C0BB
:102150000120A8404CEA000C394850F82400C0F88F
:1021600030C0374850F82400803000EB051000687C
:10217000C0F30343324850F82400803000EB0510D0
:10218000806800902E4850F82400803000EB051045
:10219000C0680190002113E0042908D2C1F1030CAA
:1021A0004FEACC0C009820FA0CF0505407E0C1F133
:1021B000070C4FEACC0C019820FA0CF05054491C43
:1021C0009942E9D333701E4850F8240081680020FA
:1021D000ADE71B4850F8240081680120A7E710B53F
:1021E0001948006810B11849086880471448006809
:1021F000846A13480068006B20431149096808632A
:1022000010BD10B51048406810B10F4948688047AC
:102210000B484068846A0A484068006B20430849BC
:102220004968086310BD00F01F0201219140420976
:102230004FF0E02303EB8202C2F800117047000068
:10224000184E02000000FC1F2C00FF1F304E020041
:1022500010B5034600222948406C012404EB10709D
:10226000274C246800FB04F233B1012B0DD0022B64
:1022700014D0042B24D11AE02048406C012404EB34
:102280001070B2FBF0F008601CE01C48406C0124A8
:1022900004EB1070B2FBF0F0086013E01748406CDC
:1022A000C0F30360401CB2FBF0F008600AE0134882
:1022B000406CC0F30340401CB2FBF0F0086001E04A
:1022C000012010BD00BF0020FBE7014608687047F1
:1022D00003B5684602680A600CBD10B503F073FDD3
:1022E00010BD10B50446204603F092FD10BD10B598
:1022F0000446204603F073FD10BD70470080044083
:102300002000FF1FFD49C96A41F48051FB4AD16298
:10231000017911B101291ED10EE0F94A016852F884
:10232000211091F8211041F02001F54B026853F87B
:10233000222082F821100FE0F14A016852F82110A2
:1023400091F8211021F02001ED4B026853F8222072
:1023500082F8211000E000BF00BF417931B10129AE
:1023600013D0022938D003297DD15EE0E44A016808
:1023700052F8211091F8221021F00101E04B02687F
:1023800053F8222082F822107BE0DD4A016852F8DF
:10239000211091F8221041F00101D94B026853F845
:1023A000222082F822101A46016852F8211091F872
:1023B000221021F00601026853F8222082F8221030
:1023C0001A46016852F8211091F82210026853F859
:1023D000222082F8221054E0C94A016852F82110E4
:1023E00091F8221041F00101C54B026853F82220F8
:1023F00082F822101A46016852F8211091F8221032
:1024000021F00601026853F8222082F822101A46B1
:10241000016852F8211091F8221041F0020102687F
:1024200053F8222082F822102BE0B54A016852F8B6
:10243000211091F8221041F00101B14B026853F8CC
:10244000222082F822101A46016852F8211091F8D1
:10245000221021F00601026853F8222082F822108F
:102460001A46016800E00BE052F8211091F82210A2
:1024700041F00401026853F8222082F8221000E0A3
:1024800000BF00BF817911B101291ED10EE09C4A25
:10249000016852F8211091F8211021F04001984B69
:1024A000026853F8222082F821100FE0944A016854
:1024B00052F8211091F8211041F04001904B026830
:1024C00053F8222082F8211000E000BF00BF8C4AA0
:1024D000016852F8211091F8201021F00101884B79
:1024E000026853F8222082F820101A46016852F838
:1024F000211091F8201021F00201026853F82220E7
:1025000082F820101A46016852F8211091F8201024
:1025100021F00401026853F8222082F820101A46A4
:10252000016852F8211091F8211041F080010268F1
:1025300053F8222082F8211070470146704850F865
:10254000210090F82300000970476D4A52F82020BE
:1025500092F8232022F0F002694B53F8203083F8E0
:102560002320674A52F8202092F823200B0103F021
:10257000F0031A43624B53F8203083F8232070474E
:102580005F4A52F8202092F8232022F00F025C4B81
:1025900053F8203083F82320594A52F8202092F82B
:1025A000232001F00F031A43554B53F8203083F8D2
:1025B0002320704770B504460D46082D7ED2DFE813
:1025C00005F010041D2E3F5069844E49085700F055
:1025D0001F02012191404C4A430942F8231000BFD9
:1025E00095E0474850F8240090F8220020F0800041
:1025F000434951F8241081F8220088E0404850F8FF
:10260000240090F8210040F004003D4951F82410C6
:1026100081F821003B49085700F055F977E0384828
:1026200050F8240090F8210040F00200344951F89D
:10263000241081F821003349085700F044F966E07E
:102640002F4850F8240090F8210040F001002C4958
:1026500051F8241081F821002A49085700F033F975
:1026600055E0274850F8240090F8210040F004007D
:10267000234951F8241081F82100214850F8240002
:1026800090F8220040F080001D4951F8241081F894
:1026900022003CE01A4850F8240090F8210040F055
:1026A0000200174951F8241081F82100144850F80D
:1026B000240090F8220040F0800000E026E010495D
:1026C00051F8241081F8220021E00D4850F8240030
:1026D00090F8210040F00100094951F8241081F8D8
:1026E0002100074850F8240090F8220040F08000B4
:1026F000034951F8241081F8220008E000800440CA
:10270000344E02003C4E020080E100E000BF00BFFA
:1027100070BD734951F8201091F8211041F010015B
:102720006F4A52F8202082F8211070476C4A52F804
:10273000202092F8222022F01802694B53F8203012
:1027400083F8222031B101290FD002291AD00329A0
:1027500032D124E0624A52F8202092F82220604BC5
:1027600053F8203083F8222027E05D4A52F82020D9
:1027700092F8222042F00802594B53F8203083F897
:1027800022201AE0564A52F8202092F8222042F0E5
:102790001002534B53F8203083F822200DE0504AAA
:1027A00052F8202092F8222042F018024C4B53F8A5
:1027B000203083F8222000E000BF00BF704730B512
:1027C0000346002011E031F81040454D55F82350E4
:1027D00005F8104031F81040240A414D55F82350B7
:1027E00005EB40056C70441CE0B29042EBDB30BD61
:1027F00011B13C4A42F82010704710B538480068C3
:1028000090F8214014F0040F09D03548006890F882
:10281000200020F004003249096881F8200014F0FB
:10282000010F09D02E48006890F8200020F0010028
:102830002B49096881F8200014F0020F09D02848BC
:10284000006890F8200020F002002549096881F80E
:1028500020002448006810B122490868804710BD54
:1028600010B51F48006890F8214014F0040F09D0FB
:102870001B48006890F8200020F0040018490968FF
:1028800081F8200014F0010F09D01548006890F875
:10289000200020F001001249096881F8200014F09E
:1028A000020F09D00E48006890F8200020F00200C6
:1028B0000B49096881F820000A48406810B10949AD
:1028C0004868804710BD00F01F0201219140420975
:1028D0004FF0E02303EB8202C2F8001170470000C2
:1028E000344E02003400FF1FF749C96B41F002016A
:1028F000F54AD1631146096C41F002011164F349B4
:10290000C968037801229A409143F04AD160417826
:1029100001F03F010278EE4BD154817911B10129C8
:1029200012D108E00178EA4A895C21F0400102787E
:10293000E74BD15409E00178E54A895C41F0400158
:102940000278E34BD15400E000BF00BF0022E14910
:10295000037801EB4311CA80DE49037801EB431190
:102960008A834288DB49037801EB43118A608188BE
:10297000C1F30E02D749037801EB4311CA82818863
:10298000C1F30E02D349037801EB4311CA83D14945
:10299000037801EB4311C2680A6081688AB2CD49AD
:1029A000037801EB43118A80CA49027801EB421196
:1029B000C988027C4FF4E06303EA02221143C54A4E
:1029C000037802EB4312D180C249027801EB421135
:1029D000C988027ED20202F478421143BD4A0378CC
:1029E00002EB4312D180BB4A037802EB43124169E8
:1029F000D160B849037801EB4311026A0A61C169E9
:102A00008AB2B449037801EB43118A82B149027852
:102A100001EB4211C98890F8242002F0070211430B
:102A2000AC4A037802EB4312D180AA49027801EB49
:102A30004211C98890F82C20F82303EAC2021143FE
:102A4000A44A037802EB4312D180A249037801EB38
:102A50004311826A8A619F49027801EB4211898B96
:102A600041F008029B49037801EB43118A83017806
:102A7000974A895C41F080010278954BD1547047A8
:102A80000146944800EB4110C08AC0F30E00704725
:102A9000904A02EB4012D28AD30BDB038D4A02EB41
:102AA0004012D3828B4A02EB4012D28AC1F30E034A
:102AB0001A43884B03EB4013DA82704700F00F0192
:102AC000824AD176704700F00F01804A91767047B4
:102AD00051B1804A02EB4012928B42F008037D4ACA
:102AE00002EB4012938309E07A4A02EB4012928B88
:102AF00022F00803774A02EB40129383704710B527
:102B00000AB3744B03EB40139B8B43F02004714BCF
:102B100003EB40139C836F4B03EB40139B8B23F41D
:102B200070646C4B03EB40139C836A4B03EB4013C4
:102B30009B8B4FF4706404EA01242343654C04EB3F
:102B40004014A38309E0634B03EB40139B8B23F0FA
:102B50002004604B03EB40139C8310BD70B504460A
:102B60000D4635B1012D0FD0022D18D0032D3ED1C9
:102B700024E0584800EB4410808B20F004015548B5
:102B800000EB4410818333E0524800EB4410808B0B
:102B900020F002014F4800EB4410818328E04E49A9
:102BA000085700F021F94B4800EB4410808B40F0AF
:102BB0000401484800EB4410818319E04649085756
:102BC00000F012F9434800EB4410808B20F0040120
:102BD000404800EB441081833E4800EB4410808B5A
:102BE00040F002013B4800EB4410818300E000BF4D
:102BF00000BF70BD11B1394A42F82010704701463C
:102C00003248C06801228A4010420ED0314800EBA1
:102C10004110808B10F0800F05D001F00F002B4A7F
:102C20001077002070470120FCE701F00F00274AD1
:102C300010770020F6E7274A02EB40121161704737
:102C40000146244800EB411000697047214A02EB1D
:102C500040121160704701461E4800EB41100068A9
:102C600070471A48006840F40030184908607047FF
:102C700010B500201549C8771848006810B11749E9
:102C80000868804710BD10B501201049C877134867
:102C9000406810B111494868804710BD10B5022046
:102CA0000A49C8770D48806810B10C498868804788
:102CB00010BD10B503200549C8770848C06810B199
:102CC0000649C868804710BD00800440008000406D
:102CD00000100240009000403E4E02009C13FF1F77
:102CE00010B504204649C8774648006910B14549E7
:102CF0000869804710BD10B505204149C877414893
:102D0000406910B13F494869804710BD10B50620A1
:102D10003B49C8773B48806910B13A498869804788
:102D200010BD10B507203649C8773648C06910B1C4
:102D30003449C869804710BD10B508203049C877AC
:102D40003048006A10B12F49086A804710BD10B59D
:102D500009202B49C8772B48406A10B12949486A95
:102D6000804710BD10B50A202549C8772548806ADC
:102D700010B12449886A804710BD10B50B20204946
:102D8000C8772048C06A10B11E49C86A804710BD84
:102D900010B50C201A49C8771A48006B10B11949B0
:102DA000086B804710BD10B50D201549C877154830
:102DB000406B10B11349486B804710BD10B50E2011
:102DC0000F49C8770F48806B10B10E49886B804758
:102DD00010BD10B50F200A49C8770A48C06B10B162
:102DE0000849C86B804710BD00F01F0201219140C7
:102DF00042094FF0E02303EB8202C2F80011704752
:102E0000008000409C13FF1FF84900E0491C11F0AE
:102E10000F0FFBD1F64A1160F64900E0491C11F092
:102E20000F0FFBD1F44A1160002011E00022F04B9B
:102E30001B6803EB40135A80ED4B1B6803EB4013F8
:102E40001A801822EA4B1B6803EB40139A60401C5F
:102E50000028EBD0E94900E0491C11F00F0FFBD12D
:102E6000002021E08022E44B1B6803EB40131A8012
:102E70000022E14B1B6803EB40135A800ABADE4B79
:102E80001B6803EB40135A6001F5BE610022DA4B68
:102E90001B6803EB40131A614FF40042D64B1B68CA
:102EA00003EB40139A60401C0028DBD0D04A126824
:102EB000128842F02002CE4B1B681A80CE4A12685C
:102EC000128842F02002CC4B1B681A80704770B504
:102ED00003464FF0FF31002212E09C5C00250CE01D
:102EE00004F0010001F00106704003D04908C44815
:102EF000414000E0490864106D1C082DF0DB521CB5
:102F0000062AEADB880E70BD70B5044620780006FC
:102F1000617840EA0140A17840EA0120E178084365
:102F2000B849086020794FEA0060617940EA0140C1
:102F3000B549C1F8E8002046FFF7C9FF0546202D36
:102F40000DDBB2480068A5F120014FF0010202FA42
:102F500001F240EA0200AC49C1F818010AE0AC48AD
:102F600000684FF0010101FA05F140EA0100A649AD
:102F7000C1F81C0170BD38B5A648C06A40F0010018
:102F8000A449C8620020A449086069460220FFF7EE
:102F90005FF94FF47A710098B0FBF1F0B0FBF1F4F7
:102FA00060000521B0FBF1F0401C7E2101EA4000E9
:102FB0009549486438BD30B503460C469248406890
:102FC00040F40000904D68604FF0786000EAC35014
:102FD00040F0A0404FF4F80505EA8445284340F44A
:102FE00000301043884D2864002106E08648406880
:102FF00010F4000F00D003E0491C88488142F5D34B
:1030000000BF8648814201D1C8B230BD7E484068C9
:1030100040F400007C4D68600020F6E730B50346C0
:103020000C467948406840F40000774D68604FF0E6
:10303000786000EAC35040F0C0404FF4F80505EA5C
:103040008445284340F400306F4D2864002106E099
:103050006D48406810F4000F00D003E0491C6F4831
:103060008142F5D300BF6D48814201D1C8B230BD65
:103070006548406840F40000634D68602846006C75
:1030800010800020F3E770B504466248C06A40F043
:1030900001006049C86200205F49086001205A4968
:1030A0004862002502E000BF681C85B2642DFADB8F
:1030B000FFF761FFFFF7A8FE5948407820F00400B1
:1030C000574948705748007840F0800055490870CB
:1030D000002500204E4908604B49C1F818015249AB
:1030E0000860A1F1040108602068FFF70DFF4F4858
:1030F0004F4908604FF000004E490860607970B198
:103100004B48006840F002003F49C1F8840008467F
:10311000D0F8C40020F00400C1F8C4000DE0444819
:10312000006820F002003849C1F884000846D0F851
:10313000C40040F00400C1F8C400207938B13C4814
:10314000006840F400703049C1F8840006E0384857
:10315000006820F400702C49C1F884004FF0100082
:10316000294948623448006843F6F07140EA01009A
:103170002549C1F8880120480068C1F880011C4831
:1031800000682E4908604FF0FF301F49486008462C
:10319000406A40F0020048624FF08070086170BDE4
:1031A00070B504460D4600BF11480068008810F055
:1031B000800FF9D120BA0E49096848602846FDF70A
:1031C0009FF90B490968488000200949096808618E
:1031D0006020074909688860AC20054909680880B3
:1031E0004FF080700849486170BD0000DC13FF1F7C
:1031F0004400FF1F0C14FF1F4800FF1F3C14FF1F5B
:103200002083B8EDE4000C4000000C4018010C4095
:103210001C010C400080044000D00040FFFF010072
:10322000004006400050064024010C400441F005D7
:1032300084000C40C4000C4088010C4084010C4008
:1032400070B50546002449480068008810F0800FDA
:103250001BD1464909684888FDF752F984B24348B2
:103260000068406801BA2246284621F06EFA3F48BD
:103270000068008840F080003C49096808804FF0F1
:1032800080703B490861204670BD0020FCE710B506
:10329000044634B1012C0BD0022C10D0032C22D1C7
:1032A00017E03348806820F00060314988601BE0F7
:1032B0002F48806820F000702D49886014E04C2071
:1032C00000F047F82A48806840F00060284988608C
:1032D0000AE04D2000F03DF82548806840F000707D
:1032E0002349886000E000BF00BF10BD08B121493C
:1032F0000860704708B12049086070471C48406862
:1033000010F0006F07D01A48406840F0006018497C
:103310004860002070470120FCE710B51448406861
:1033200040F00060124948601248006810B111492D
:103330000868804710BD10B50D48406840F0007027
:103340000B4948600C48006810B10B490868804779
:1033500010BD00F01F020121914042094FF0E0230F
:1033600003EB8202C2F80011704700004800FF1F03
:1033700000000C403C00FF1F4000FF1F10B5FE4B3B
:1033800053F830301B68FC4C04EBC00464682343E2
:10339000F94C54F8304023600023F84C54F8204096
:1033A0002360F64B53F820305B6D43F00403F34C7D
:1033B00054F8204063650023F04C54F820406360CB
:1033C000EE4C54F82040E364EC4B53F82030996005
:1033D0004FF0FF33E94C54F82040C4F89830E74BE5
:1033E00053F820301B6823F01803E44C54F82040B5
:1033F0002360E24B53F820301B6843F00803DF4C96
:1034000054F820402360DD4B53F820301B6823F034
:103410000703DA4C54F820402360D84B53F820308F
:103420001B6802F007042343D44C54F82040236067
:1034300010BD014609B1012901D1002070470229C0
:1034400001D0032901D10120F8E7042901D0052981
:1034500001D10220F2E70320F0E72DE9F041044614
:103460000E4615461F464FF00008062D34D2DFE801
:1034700005F0030B131B232B3046FFF7DAFFC100C7
:10348000012000FA01F828E03046FFF7D2FFC10022
:10349000022000FA01F820E03046FFF7CAFFC10021
:1034A000042000FA01F818E03046FFF7C2FFC1001F
:1034B000102000FA01F810E03046FFF7BAFFC10013
:1034C000202000FA01F808E03046FFF7B2FFC10003
:1034D000402000FA01F800E000BF00BF012F0AD130
:1034E000A64850F82400406E40EA0800A34951F86D
:1034F0002410486609E0A14850F82400406E20EAF4
:1035000008009E4951F824104866BDE8F08110B5C6
:1035100012B1012A3AD11CE0984B53F820300C33F9
:1035200053F8313023F00404944B53F820300C331B
:1035300043F83140914B53F820300C3353F831307D
:1035400043F008048D4B53F820300C3343F83140DE
:103550001DE08A4B53F820300C3353F8313043F0E0
:103560000404864B53F820300C3343F83140834B2E
:1035700053F820300C3353F8313023F008047F4BDC
:1035800053F820300C3343F8314000E000BF00BF57
:1035900010BD70B504460D461646062E7ED2DFE8F5
:1035A00006F0035BF1FDA2EF744850F82400406D73
:1035B00020F00100714951F8241048656F4850F817
:1035C0002400D0F8800020F001006C4951F824104C
:1035D000C1F88000694850F82400006820F02000FD
:1035E000664951F824100860644850F824000C30F3
:1035F00050F8350040F03001604850F824000C309D
:1036000040F83510002229462046FFF780FF0023AE
:103610001A4629462046FFF720FF002301222946AB
:103620002046FFF71AFF0023022229462046FFF713
:1036300014FF0023032229462046FFF70EFF002334
:10364000042229462046FFF708FF002305222946C9
:103650002046FFF702FFD3E1484850F82400406DB0
:1036600020F00100454951F824104865434850F8BE
:103670002400D0F8800020F00100404951F82410C7
:10368000C1F880003D4850F82400006840F0200058
:103690003A4951F824100860002300E0AFE11A46CF
:1036A00029462046FFF7D9FE00230122294620465D
:1036B000FFF7D3FE0023022229462046FFF7CDFE66
:1036C0000023032229462046FFF7C7FE00230422D9
:1036D00029462046FFF7C1FE002305222946204641
:1036E000FFF7BBFE8CE1254850F82400D0F880009D
:1036F00020F00100214951F82410C1F880001F4832
:1037000050F82400406D20F001001C4951F82410AD
:1037100048651A4850F82400006820F02000174936
:1037200051F824100860154850F824000C3050F867
:10373000350020F03001114850F824000C3040F8DA
:10374000351000231A4629462046FFF786FE00233F
:10375000012229462046FFF780FE00230222294647
:103760002046FFF77AFE0023032229462046FFF772
:1037700074FE0023042206E0684E0200504E020050
:10378000EEE00BE07BE029462046FFF766FE0023D3
:10379000052229462046FFF760FE31E1F74850F840
:1037A0002400D0F8800020F00100F44951F82410E2
:1037B000C1F88000F14850F82400006820F0200093
:1037C000EE4951F824100860EC4850F82400406D90
:1037D00040F00400E94951F824104865E74850F8E2
:1037E0002400406D40F00100E44951F82410486580
:1037F0000123002229462046FFF72FFE01231A4607
:1038000029462046FFF729FE0023022229462046AA
:10381000FFF723FE0023032229462046FFF71DFE63
:103820000123042229462046FFF717FE0023052224
:1038300029462046FFF711FED04850F824000C30EE
:1038400050F8350040F03001CC4850F824000C30DE
:1038500040F83510002229462046FFF758FE032085
:10386000C64951F824108865C44850F82400806D7A
:1038700040F08000C14951F824108865C0E0BF487D
:1038800050F82400D0F8800020F00100BB4951F826
:103890002410C1F88000B94850F82400006820F0D6
:1038A0002000B64951F824100860B44850F82400AC
:1038B000406D40F00400B14951F824104865AF480C
:1038C00050F82400406D40F00100AC4951F824103C
:1038D00048650123002229462046FFF7BEFD00234C
:1038E000012229462046FFF7B8FD0023022229467F
:1038F0002046FFF7B2FD0023032229462046FFF7AA
:10390000ACFD0123042229462046FFF7A6FD002333
:10391000052229462046FFF7A0FD984850F82400CC
:103920000C3050F8350040F03001944850F8240035
:103930000C3040F83510002229462046FFF7E7FDFD
:1039400003208E4951F8241088658C4850F82400D3
:10395000806D40F08000894951F8241088654FE05F
:10396000864850F82400D0F8800040F001008349D8
:1039700051F82410C1F88000804850F824000068F5
:1039800020F020007D4951F8241008607B4850F851
:103990002400406D40F00400784951F82410486537
:1039A000764850F82400406D40F00100734951F80A
:1039B000241048650123002229462046FFF74DFDCB
:1039C0000023012229462046FFF747FD002302225B
:1039D00029462046FFF741FD0023032229462046C1
:1039E000FFF73BFD0023042229462046FFF735FD63
:1039F0000023052229462046FFF72FFD00E000BFE7
:103A000000BF70BDF7B50E4617466C462168C1F37E
:103A1000020004224FF6FF71FFF7B0FC2168C1F3EA
:103A2000020005220021FFF7B4FD16B1012E48D196
:103A300023E02068C0F30200504951F82000D0F87C
:103A4000800020F020002168C1F302014B4A52F8A7
:103A50002110C1F880002068C0F30200114651F81F
:103A60002000D0F8800020F010002168C1F302018E
:103A700052F82110C1F8800024E02068C0F3020051
:103A80003E4951F82000D0F8800040F02000216825
:103A9000C1F30201394A52F82110C1F880002068B0
:103AA000C0F30200114651F82000D0F8800040F029
:103AB00010002168C1F3020152F82110C1F8800002
:103AC00000E000BF00BF17B1012F26D112E020682F
:103AD000C0F30200294951F82000D0F8800020F0FE
:103AE00008002168C1F30201244A52F82110C1F8EC
:103AF000800013E02068C0F30200204951F8200044
:103B0000D0F8800040F008002168C1F302011B4A90
:103B100052F82110C1F8800000E000BF00BF00256E
:103B200023E02368C3F38212C3F344232B44D9B2A6
:103B30002368C3F3C20000F01BFB2268C2F34422D7
:103B40002A44D1B22268C2F3C200012200F035FB40
:103B50002268C2F344222A44D1B22268C2F3C200CE
:103B6000012200F07BFB681CC5B22068C0F38430E2
:103B7000A842D6DC2068C0F30200FEBD504E020011
:103B8000FE4B53F82030D3F88030C3F3800313701A
:103B9000FA4B53F820305B689BB20B6070470021F2
:103BA000F64A52F820205160704770B51346F34C26
:103BB00054F82040A4685C4342F21075B4FBF5F25F
:103BC000EE4C54F82040646E14F0013F2FD00C46A8
:103BD00001EBD4756D10B1EB450510D00026E74C14
:103BE00054F820400C344D1E04EBC5046660E34CD1
:103BF00054F820400C3404EBC10462600FE000254F
:103C0000DE4C54F820400C3404EBC1046560DB4CFE
:103C100054F820400C344D1C04EBC50462604FF096
:103C2000FF34D64D55F82050C5F8984006E0D34CE7
:103C300054F820400C3404EBC104626070BD2DE9DF
:103C4000F74F82B08946904600274FF6FF7B02ACC3
:103C500000250DE02368C3F38212C3F344232B44F1
:103C6000D9B22368C3F3C20000F082FA681CC5B25F
:103C70002068C0F38430A842ECDC01A90220FEF7E2
:103C8000E7FA0198B0FBF8F04FF6FF71B0FBF1F6E0
:103C90000198B0FBF8F0B0FBF6F0B0F5803F00D330
:103CA000761C00251DE0012000FA05F0301A03D52E
:103CB0000120A840801B02E00120A840301A58458E
:103CC0000DD22F46012000FA05F0301A03D501204D
:103CD000A840801B02E00120A840301A8346681CDF
:103CE000C5B2072DDFDB0120B840B04201DA781CF5
:103CF000C7B2072F00DD07270120B8400199B1FBAB
:103D0000F0F0B0FBF8F0A0F1010A2168C1F3020065
:103D10003A465146FFF732FBB9F1000F06D0B9F130
:103D2000010F0CD0B9F1020F1BD111E02268C2F3D0
:103D3000C441C2F302000022FFF72BFC12E022680C
:103D4000C2F3C441C2F302000222FFF722FC09E0E1
:103D50002268C2F3C441C2F302000322FFF719FC38
:103D600000E000BF00BF2268C2F3C441C2F30200FA
:103D700041F28832FFF719FF2068C0F3020005B056
:103D8000BDE8F08F73B50E466C4600250CE0236845
:103D9000C3F38212C3F344232B44D9B22368C3F381
:103DA000C20000F0E5F96D1C2068C0F38430A84221
:103DB000EDD82168C1F3020032464FF6FF71FFF7DC
:103DC000DDFA2268C2F3C441C2F302000422FFF705
:103DD000E0FB7CBD10B5694B53F820300C3353F831
:103DE000313023F00C04654B53F820300C3343F88A
:103DF000314022B1012A1FD0022A49D139E05F4B5C
:103E000053F820300C3353F8313023F008045B4B67
:103E100053F820300C3343F83140584B53F82030DE
:103E20000C3353F8313043F00404544B53F8203032
:103E30000C3343F831402CE0504B53F820300C3316
:103E400053F8313043F008044C4B53F820300C3316
:103E500043F83140494B53F820300C3353F831309C
:103E600023F00404454B53F820300C3343F8314021
:103E70000FE0424B53F820300C3353F8313043F00D
:103E80000C043E4B53F820300C3343F8314000E033
:103E900000BF00BF10BD0246384850F822000C3069
:103EA00000EBC10040687047344A52F8202051604E
:103EB000704711B1324A42F82010704770B511298D
:103EC0007ED2DFE801F0092021222324252627487D
:103ED000494A4B4C4D4E4F0052B1284B53F82030BD
:103EE0001B6843F04003254C54F82040236009E050
:103EF000224B53F820301B6823F040031F4C54F82A
:103F00002040236083E000BF00BF00BF00BF00BFB0
:103F100000BF00BF7AB1194B53F820300C334C1E50
:103F200053F8343043F04005144B53F820300C3331
:103F300043F834500EE0114B53F820300C334C1E34
:103F400053F8343023F040050C4B53F820300C3339
:103F500043F834505BE000BF00BF00BF00BF00BFAC
:103F600000BF00BFBAB1054B53F820400C34A1F19B
:103F7000090354F8333043F0400503E0504E02008B
:103F80003C1AFF1F764B53F820400C34A1F1090373
:103F900044F8335011E0724B53F820400C34A1F137
:103FA000090354F8333023F040056D4B53F820409B
:103FB0000C34A1F1090344F83350A2B1684B00E07E
:103FC00024E053F820400C34A1F1090354F83330B5
:103FD00043F00105624B53F820400C34A1F1090372
:103FE00044F8335011E05E4B53F820400C34A1F1FB
:103FF000090354F8333023F00105594B53F820409E
:104000000C34A1F1090344F8335000E000BF00BFB5
:10401000544C235603F01F050124AC405D094FF0BA
:10402000E02606EB8505C5F8004100BF70BD10B560
:104030004D48006810B14C490868804748480068FE
:10404000006810F0C00F07D045480068006820F0F5
:104050008000434909680860002415E04048006872
:104060000C3050F8340010F0C00F0CD03C48006801
:104070000C3050F8340020F08001394800680C30D2
:1040800040F8341004E0641C38480068A042E5D8C9
:1040900000BF10BD10B53448406810B132494868BF
:1040A00080472F484068006810F0C00F07D02C48A8
:1040B0004068006820F080002949496808600024B1
:1040C00015E0274840680C3050F8340010F0C00F5D
:1040D0000CD0234840680C3050F8340020F08001A8
:1040E0001F4840680C3040F8341004E0641C1F483E
:1040F0004068A042E5D800BF10BD10B51A488068DE
:1041000010B119498868804715488068006810F028
:10411000C00F07D012488068006820F08000104966
:1041200089680860002415E00D4880680C3050F85C
:10413000340010F0C00F0CD0094880680C3050F8E3
:10414000340020F08001064880680C3040F83410BC
:1041500004E0641C05488068A042E5D800BF10BD9B
:10416000504E0200804E02003C1AFF1F5C4E0200BF
:1041700010B5FB4B9B6BFB4C54F820402343F84C91
:10418000A363F94B53F8203053F8213023F4E06354
:10419000F54C54F8204044F82130F34B53F82030CC
:1041A00053F821304FF4E06404EA02242343EE4C38
:1041B00054F8204044F8213010BD10B5E84B9B6BFB
:1041C000E84C54F820402343E54CA36322B1012A74
:1041D0000FD0022A3FD125E0E34B53F8203053F8AB
:1041E000213023F00203E04C54F8204044F8213001
:1041F00032E0DD4B53F8203053F8213043F0020316
:10420000D94C54F8204044F82130D74B53F8203093
:1042100053F8213043F00103D34C54F8204044F8C4
:10422000213019E0D04B53F8203053F8213043F0BF
:104230000203CD4C54F8204044F82130CA4B53F8C7
:10424000203053F8213023F00103C74C54F82040AC
:1042500044F8213000E000BF00BF10BD10B5C04BD6
:104260009B6BC04C54F820402343BD4CA363012AF0
:104270000CD1BD4B53F8203053F8213043F02003CC
:10428000B94C54F8204044F821300BE0B64B53F8B9
:10429000203053F8213023F02003B34C54F8204051
:1042A00044F8213010BD10B5AD4B9B6BAD4C54F8AC
:1042B00020402343AA4CA363012A0CD1AA4B53F8F4
:1042C000203053F8213043F01003A74C54F820401D
:1042D00044F821300BE0A44B53F8203053F8213040
:1042E00023F01003A04C54F8204044F8213010BDB6
:1042F00010B59B4B9B6B9B4C54F820402343984C30
:10430000A363012A0BD1994B53F820305B69012438
:104310008C402343954C54F8204063610AE0934B52
:1043200053F820305B6901248C40A3438F4C54F830
:104330002040636110BD10B504466078052863D243
:10434000DFE800F00316293C4F006268D1B2207804
:104350000022FFF732FF6268D1B220780022FFF717
:104360007DFF6268D1B220780022FFF7C1FF4CE0E8
:104370006268D1B220780222FFF71FFF6268D1B2D3
:1043800020780022FFF76AFF6268D1B2207800220D
:10439000FFF7AEFF39E06268D1B220780122FFF763
:1043A0000CFF6268D1B220780022FFF757FF6268E5
:1043B000D1B220780022FFF79BFF26E06268D1B2DD
:1043C00020780122FFF7F9FE6268D1B2207801223D
:1043D000FFF744FF6268D1B220780122FFF788FF1F
:1043E00013E06268D1B220780022FFF7E6FE62682F
:1043F000D1B220780022FFF731FF6268D1B2207875
:104400000122FFF775FF00E000BF00BF6268D1B274
:1044100020780122FFF7ACFE10BD7CB504460D46A6
:104420001646E0B28DF800008DF8016001956846EF
:10443000FFF781FFE0B27CBD10B55AB14B4B53F88A
:1044400020305B6801248C402343484C54F82040C2
:1044500063600AE0454B53F820309B6801248C4090
:104460002343424C54F82040A36010BD02463F480D
:1044700050F822004069C84010F0010F07D03B48B7
:1044800050F822000068C84000F00100704737482B
:1044900050F822000069C84000F00100F6E7334AF6
:1044A00052F82020D26801238B401A432F4B53F837
:1044B0002030DA60704701462C4850F8210000692E
:1044C00070472A4A52F82020116070472DE9F041C8
:1044D00004460D4616461F462148806B214951F877
:1044E000241008431E4988631F4850F8240050F8E0
:1044F000250020F470201C4951F8241041F82500B3
:1045000067B91B49085700F01F0201219140194A61
:10451000430942F8231000BFBDE8F081082E7CD289
:10452000DFE806F004112A3748596A7C0E4850F833
:10453000240050F8250040F480300B4951F8241035
:1045400041F825007CE0084850F8240050F8250088
:1045500040F40030044951F8241041F825006FE080
:1045600000800440AC4E0200984E0200844E0200CF
:10457000C04E020080E100E06F4850F8240050F87F
:10458000250040F440306C4951F8241041F82500D2
:1045900056E0694850F8240050F8250040F4002007
:1045A000654951F8241041F825006449085700F086
:1045B000B6F845E0604850F8240050F8250040F473
:1045C00010205D4951F8241041F825005B49085737
:1045D00000F0A5F834E0584850F8240050F82500C1
:1045E00040F42020544951F8241041F82500534943
:1045F000085700F094F823E04F4850F8240050F892
:10460000250040F430204C4951F8241041F8250091
:104610004A49085700F083F812E010E0464850F885
:10462000240050F8250040F44020434951F824105C
:1046300041F825004149085700F071F800E000BF3B
:1046400000BF00BF68E73E4A926B3E4B53F82030F4
:104650001A433B4B9A6311B13B4A42F82010704712
:1046600010B535480068D0F8A0404FF0FF3032490F
:104670000968C1F8A0003448006818B132480168E0
:104680002046884710BD10B52B484068D0F8A040A0
:104690004FF0FF3028494968C1F8A0002A48406817
:1046A00018B1294841682046884710BD10B52248F6
:1046B0008068D0F8A0404FF0FF301F498968C1F8EA
:1046C000A0002148806818B11F48816820468847AB
:1046D00010BD10B51848C068D0F8A0404FF0FF30AA
:1046E0001549C968C1F8A0001748C06818B1164834
:1046F000C1682046884710BD10B50F480069D0F842
:10470000A0404FF0FF300C490969C1F8A0000E48E5
:10471000006918B10C4801692046884710BD00F0B7
:104720001F020121914042094FF0E02303EB820276
:10473000C2F8001170470000984E0200C04E0200FF
:1047400000800440AC4E0200481AFF1F2DE9F04FD4
:1047500084460B46144621464FF0FF354FF00008C3
:104760004FF000091422B3FBF2F2A24201D2BDE8DD
:10477000F08F002025E0012606FA00FA00221CE056
:10478000DFF840B40BEB820BBBF802B00BFB0AFB6B
:10479000B3FBFBF6B14202D9A1EB060B01E0A6EB9D
:1047A000010B5F46AF4207D28046DFF818B41BF812
:1047B00022903D4607B902E0521C322AE0D300BFE6
:1047C000401C022801D8002DD5D109F03F024FEA44
:1047D000881606F0C0063243FB4E56F82C60727005
:1047E00000BFC4E738B50446F848406BF84A216872
:1047F00052F821100843F5494863F349206851F8FD
:104800002000807820F08000EF4A216852F82110C3
:10481000887069460220FDF71BFDD4E9000200996B
:10482000FFF794FFE849206851F82000807840F0B5
:104830008000E54A216852F82110887038BD73B5B0
:1048400082B00E4602AC01962068C0F302000090D0
:10485000002523E02368C3F38212C3F344232B44CF
:10486000D9B22368C3F3C200FFF782FC2268C2F307
:1048700044222A44D1B22268C2F3C2000122FFF7C7
:104880009CFC2268C2F344222A44D1B22268C2F3BB
:10489000C2000122FFF7E2FC681CC5B22068C0F329
:1048A0008430A842D6DC6846FFF79CFF2068C0F33E
:1048B000020004B070BDC44951F82010897841F05D
:1048C0001001C14A52F820209170BF4951F82010C0
:1048D000897841F02001BC4A52F82020917070473D
:1048E000B94951F82010897841F00401B64A52F8CC
:1048F000202091707047B44951F82010897821F038
:104900002001B14A52F820209170AF4951F820108F
:10491000897821F01001AC4A52F82020917070473C
:10492000A94A52F82020117170470146A64850F854
:104930002100007970474B06190E012A02D101F0BF
:10494000FE0101E041F001019F4B53F82030197145
:1049500070470146002200BF01E0521C00BF9A4888
:1049600050F82100C07810F0800F03D141F2883058
:104970008242F2D3002201E0521C00BF924850F85C
:104980002100C07810F0020F03D141F2883082423A
:10499000F2D38D4850F82100C07840F002008A4BD5
:1049A00053F82130D87041F27E30824201D9022082
:1049B0007047854850F82100C07810F0010F01D0F1
:1049C0000120F5E70020F3E701290AD17E4A52F8D9
:1049D0002020927842F010027B4B53F820309A70DE
:1049E00009E0794A52F82020927822F01002764BA2
:1049F00053F820309A707047734951F82010897825
:104A000041F00801704A52F82020917070476E49B9
:104A100051F82010897821F008016B4A52F82020C3
:104A20009170704730B50A4632B1012A1AD0022A75
:104A300023D0032A45D139E0664B195601F01F04F3
:104A40000123A340644C4D0944F8253000BF5E4962
:104A500051F82010897821F040015B4B53F8203049
:104A600099702FE0584951F82010897821F0010100
:104A7000554B53F82030997024E0564B195601F0ED
:104A80001F040123A3404C094FF0E02505EB8404EB
:104A9000C4F8003100BF4C4951F82010897841F02A
:104AA0004001494B53F8203099700BE0464951F8CA
:104AB0002010897841F00101434B53F82030997060
:104AC00000E000BF00BF30BD11B1444A42F82010E1
:104AD000704701463C4850F82100C07810F0200F84
:104AE00001D0002070470120FCE72DE9FF4F8246EE
:104AF0008B461F46DDE90D6800250DF1080950467B
:104B0000FFF7D9FE012259465046FFF714FF5046E1
:104B1000FFF71FFF88B15046FFF7EDFE00BF00E032
:104B20006D1C5046FFF7D5FF18B942F21070854250
:104B3000F6D3012004B0BDE8F08FB8F1000F0AD120
:104B40005046FFF7D8FE00BF5046FFF7C2FF0028CF
:104B5000FAD00020EEE700241AE019F8011B5046B5
:104B6000FFF7DEFE5046FFF7F4FE78B15046FFF740
:104B7000C2FE002500E06D1C5046FFF7AAFF18B9E1
:104B800042F210708542F6D30220D3E7601CC4B213
:104B9000BC42E2D35046FFF7A3FE002259465046DE
:104BA000FFF7C9FE5046FFF7D4FEC8B15046FFF7E5
:104BB000A2FE002500BF5046FFF78BFF0028FAD069
:104BC0000320B7E7DA4E0200C84E0200008004401E
:104BD000D04E0200D84E020080E100E04C00FF1FE2
:104BE00000215046FFF7F0FE5046FFF79EFE50466C
:104BF000FFF70DFF5046FFF7ACFE00240CE05046D7
:104C0000FFF793FE06F8010B5046FFF700FF5046F2
:104C1000FFF79FFE601CC4B2A8F10100A042EED8CD
:104C20005046FFF782FE30705046FFF7E5FE5046D3
:104C3000FFF78FFE5046FFF75EFE00BF5046FFF7BE
:104C400048FF0028FAD0002074E72DE9FF4780468E
:104C500089461D46DDE90C6A002402AF4046FFF795
:104C60002AFE012249464046FFF765FE4046FFF70F
:104C700070FE88B14046FFF73EFE00BF00E0641CB6
:104C80004046FFF726FF18B942F210708442F6D36F
:104C9000012004B0BDE8F08718E017F8011B40467A
:104CA000FFF73EFE4046FFF754FE78B14046FFF75F
:104CB00022FE002400E0641C4046FFF70AFF18B9FA
:104CC00042F210708442F6D30220E2E72800A5F1F8
:104CD0000105E2D118E016F8011B4046FFF720FE5F
:104CE0004046FFF736FE78B14046FFF704FE002449
:104CF00000E0641C4046FFF7ECFE18B942F2107069
:104D00008442F6D30320C4E75FEA0A00AAF1010A4D
:104D1000E1D14046FFF7EFFD002400BF4046FFF71A
:104D2000D8FE0028FAD00020B3E77FB582B0044651
:104D30000D461646012005A903463246CDE900106E
:104D400029462046FFF781FF06B070BDFCB5054639
:104D50000E4617461C46012003463A463146CDE929
:104D600000402846FFF7C1FEC0B2FCBD2DE9F0416E
:104D70000746884615461E4600243846FFF79BFD29
:104D8000012241463846FFF7D6FD3846FFF7E1FDE0
:104D900080B13846FFF7AFFD00BF00E0641C384625
:104DA000FFF797FE18B942F210708442F6D3012043
:104DB000BDE8F08129463846FFF7B2FD3846FFF7D7
:104DC000C8FD78B13846FFF796FD002400E0641C6A
:104DD0003846FFF77EFE18B942F210708442F6D3CF
:104DE0000220E5E73846FFF786FD00BF3846FFF7AB
:104DF00070FE0028FAD000243846FFF75CFD002240
:104E000041463846FFF797FD3846FFF7A2FD58B1F7
:104E10003846FFF770FD00BF00BF3846FFF759FE68
:104E20000028FAD00320C3E700213846FFF7CCFD65
:104E30003846FFF77AFD3846FFF7E9FD3846FFF7B9
:104E400088FD3846FFF771FD30703846FFF7D4FD16
:104E50003846FFF77EFD3846FFF74DFD00BF384668
:104E6000FFF737FE0028FAD00020A1E7F0B504468E
:104E70000D4616461F463B46324629462046FFF75A
:104E800054FFF0BD10B50F480068C07840F0020034
:104E90000C490968C8700C48006810B10A490868D4
:104EA000804710BD10B507484068C07840F0020048
:104EB00004494968C8700448406810B1024948680C
:104EC000804710BDC84E02004C00FF1F8A49896B05
:104ED00041F00101884A91630021884A11605160C4
:104EE00091601146096821F00101116011460968BD
:104EF00021F0040111601146096821F002011160DE
:104F000005215160018891601146096841F0010155
:104F1000116070477849896B41F00101764A9163CD
:104F20000021764A1160516091601146096821F0B4
:104F3000010111601146096821F004011160114658
:104F4000096841F0020111600521516001889160FA
:104F5000817821B1012907D0022913D10BE06749DB
:104F60000968664A11600EE06449096841F0100161
:104F7000624A116007E06149096841F020015F4A17
:104F8000116000E000BF00BFC17811B101290ED14E
:104F900006E05A49096821F00801584A116007E003
:104FA0005649096841F00801544A116000E000BF09
:104FB00000BF5249096841F00101504A1160704731
:104FC00010B501464C48806B40F001004A4A90639E
:104FD00011B1012929D112E0494A92F9000000F0EB
:104FE0001F0301229A40474B440943F8242000BF85
:104FF0004248006820F04000404A106016E0404AF5
:1050000092F9000000F01F0301229A4043094FF07B
:10501000E02404EB8303C3F8002100BF3748006895
:1050200040F04000354A106000E000BF00BF10BDF6
:105030003149896B41F001012F4A916308B132492E
:10504000086070472D490C3141F2342008602B482C
:10505000C06880B2704731B582B002AC4FF6FF70C5
:10506000ADF804002068C0F3C440012802D0022833
:1050700008D103E001208DF8060004E002208DF83D
:10508000060000E000BF00BF00208DF807000025EB
:105090000CE02368C3F38212C3F344232B44D9B238
:1050A0002368C3F3C200FFF763F86D1C2068C0F3E8
:1050B0008430A842EDD801A8FFF72CFF2068C0F388
:1050C00002003EBD0D48006820F001000B49086059
:1050D0000846006840F001000860704710B50748B6
:1050E000006840F08000054908600748006810B17A
:1050F00005490868804710BD008004400000044056
:10510000A24F020080E100E05400FF1F10B50446EA
:105110006B48C06B40F400006949C86369490220CC
:10512000FDF796F8674800686749B0FBF1F06549FC
:105130000860084600684FF47A7148436349086084
:105140000846006808605F4960680968484360492C
:10515000227801EB021108605D48217800EB011014
:10516000806840F001015A48227800EB021081600B
:105170005848006820F002005649086010BD7CB510
:1051800005460C468DF8005001946846FFF7BEFFB7
:105190007CBD30B50A464A49C96B41F40001484B11
:1051A000D96312B1012A2AD10AE0494901EB001161
:1051B000896821F00203464901EB00118B601FE072
:1051C000454B195601F01F040123A3404C094FF031
:1051D000E02505EB8404C4F8003100BF3F490968AD
:1051E00041F001033D490B60394901EB0011896829
:1051F00041F00203364901EB00118B6000E000BF73
:1052000000BF30BD324901EB0011896821F0010275
:105210002F4901EB00118A602D4901EB00118968CB
:1052200041F001022A4901EB00118A6070470146F2
:10523000274800EB011040687047214AD26B42F4C6
:1052400000021F4BDA6311B1254A42F82010704763
:1052500010B52248006840F0010120480160204854
:10526000006810B11E490868804710BD10B51D4880
:10527000006840F001011B4801601948406810B106
:1052800017494868804710BD10B51748006840F0BE
:105290000101154801601248806810B11049886802
:1052A000804710BD10B51148006840F001010F485B
:1052B00001600B48C06810B10949C868804710BD3B
:1052C000008004405800FF1F40420F005C00FF1F99
:1052D0000071034000700340A34F02000C710340B3
:1052E0005C1AFF1F1C7103402C7103403C7103408A
:1052F0000146EA4AD26B42F00052E84BDA63E84AD0
:10530000126922F48072E64B1A610A78012A06D0EB
:10531000022A0BD0032A10D0042A1CD114E0E04A40
:10532000126942F40052DE4B1A6115E0DC4A126940
:1053300042F48052DA4B1A610EE0D94A126942F403
:105340000062D74B1A6107E0D54A126942F48062C5
:10535000D34B1A6100E000BF00BFD14A126942F48A
:105360008072CF4B1A61002000E0401CB0F5C04FA6
:10537000FBD3CB4A526942F01002C94B5A617047C5
:1053800008B5032000906846FFF7B2FF08BDF0B5EE
:1053900003460D46591E002604E0C24850F8260078
:1053A0000244761CAE42F8DB022D10DD4FF4C870CB
:1053B00093FBF0F400FB143040B113F0030F06D15F
:1053C000642093FBF0F400FB143000B1521C642005
:1053D00091FBF0F00C46CF1701EB977701EBA70795
:1053E000381A4FF4C87791FBF7F738441044072771
:1053F00090FBF7FC07FB1C00F0BD10B50288A2F281
:10540000B27240F26D135A430A600288D31702EB5E
:1054100093739B10A3F5F6730C6823440B604388C9
:10542000A14C34F813300A681A440A6083880A6869
:105430001A440A60028812F0030F05D14288022A3A
:1054400002D80A68521E0A60984B0A685A43C388F9
:10545000C3EB4314C4EB032302EB03120389C3EB36
:10546000031302EB8302837A1A440A600A68521C0F
:105470000A6010BDF0B505462A688C4FB2FBF7F301
:10548000B2FBF7FC07FB1C224FF46167B2FBF7F796
:10549000CF804FF46167B2FBF7FC07FB1C223C276F
:1054A000B2FBF7F70F813C27B2FBF7FC07FB1C2789
:1054B0008F7240F2B2770F8040F26D160CE09B1BAA
:1054C0000F887F1C0F800F8817F0030F02D040F267
:1054D0006D1601E04FF4B776B342F0D80F8817F09D
:1054E000030F01D0724C00E0724C012007E0275CF2
:1054F0009F4201D3488004E0275CDB1B401C0C2842
:10550000F5D900BF8B80F0BD38B50446644800680B
:10551000009004B938BD21466846FFF7ABFF00BFD5
:10552000F8E75F48006808B1002070470120FCE7F9
:1055300038B5044604B938BD69462046FFF75DFF1B
:105540000098401E5649886000BFF4E7544AD2686C
:1055500022F47F42524BDA601A46D26822F0FF02F0
:10556000DA601A46D2684FF47F4303EA00231A43F5
:105570004B4BDA601A46D268CBB21A43484BDA601A
:10558000704747480068704745488068704738B59D
:10559000044604B938BD69462046FFF72EFF40484F
:1055A000406920F010003E494861009808600846B4
:1055B000406940F01000486100BFEBE73849496995
:1055C00021F01001364A516111460860496941F0E5
:1055D00010015161704710B5044634B1012C15D04B
:1055E000022C1AD0032C22D106E02D48C06920F0ED
:1055F00002002B49C8611BE02948C06940F0020045
:105600002749C861422000F03DF811E02448C069F4
:1056100020F004002249C8610AE02148C06940F036
:1056200004001F49C861422000F02CF800E000BFD0
:1056300000BF10BD08B120490860704710B51E4872
:10564000006810B11C49086880471548C06910F00F
:10565000020F08D01248406910F0020F03D0104822
:1056600000680F4908600E48C06910F0040F08D0A8
:105670000B48406910F0040F03D0094880680849BE
:10568000886010BD00F01F020121914042094FF0D7
:10569000E02303EB8202C2F800117047008004404F
:1056A00000D003406400FF1FC24F02008051010080
:1056B000A84F0200B54F02006000FF1F2DE9FF4F09
:1056C00082B004468C46DDF810B0FE4850F8240045
:1056D000006810F0004F03D1002006B0BDE8F08F45
:1056E0004FF0FF324FF000084FF000090120019009
:1056F00000200090002126E000231FE0012518E093
:10570000F14850F82100DFF8C4E35EF823E000FB25
:105710000EFE05986843B0FBFEF6B34508D3ABEB2D
:10572000060A524504D95246884699460096019584
:105730006D1C032D01D2002AE2D15B1C102B01D27B
:10574000002ADBD1491C042901D2002AD4D1DD482A
:1057500050F824000C3050F82C70DD4807400198B8
:10576000401E0BD04FF4403000EA084040F00040AB
:1057700009F00F0E40EA0E00074308E04FF44030F6
:1057800000EA084009F00F0E40EA0E000743CD483A
:1057900050F824000C3040F82C7000989DE72DE95B
:1057A000F84305460C4616461F46DDE90889C548FC
:1057B00050F825000C3050F8240020F0F041C1488A
:1057C00050F825000C3040F82410BE4850F8250051
:1057D0000C3050F82400791E4FF0F04202EAC1610B
:1057E0000843B84951F825100C3141F82400B8F1AC
:1057F000000F03D0B8F1010F1ED10EE0B14850F8F0
:1058000025000C3050F8240020F08071AD4850F88D
:1058100025000C3040F824100FE0AA4850F825006D
:105820000C3050F8240040F08071A64850F8250054
:105830000C3040F8241000E000BF00BF36B1012E4C
:1058400021D0022E3CD0032E75D156E09D4850F851
:1058500025000C3050F8240020F08061994850F861
:1058600025000C3040F82410964850F825000C30E4
:1058700050F8240020F00071924850F825000C30B8
:1058800040F8241058E08F4850F825000C3050F8AC
:10589000240020F080618B4850F825000C3040F83F
:1058A0002410884850F825000C3050F8240040F0AF
:1058B0000071844850F825000C3040F824103BE07B
:1058C000804850F825000C3050F8240040F08061EA
:1058D0007C4850F825000C3040F82410794850F8E6
:1058E00025000C3050F8240020F00071754850F865
:1058F00025000C3040F824101EE0724850F82500B6
:105900000C3050F8240040F080616E4850F82500BB
:105910000C3040F824106B4850F825000C3050F83B
:10592000240040F00071674850F825000C3040F822
:10593000241001E0FFE700BF00BF69460220FCF72A
:1059400087FC4A46E1B22846009BFFF7B7FEBDE858
:10595000F8837CB504465F49206851F83000006840
:105960005C4A216802EBC10149680843216852F88A
:10597000311008605349206851F82000006840F059
:105980000100504A216852F821100860207910B1B6
:1059900001281AD10CE04B49206851F8200000681A
:1059A00040F00040474A216852F8211008600DE09D
:1059B0004449206851F82000006820F00040414A26
:1059C000216852F82110086000E000BF00BF3D4987
:1059D000206851F82000006820F48040394A21688E
:1059E00052F8211008601146206851F82000006824
:1059F00039490843216852F821100860A179A0684C
:105A0000CDE900106379E279E1682068FFF7C7FE0D
:105A10004FF0FF302B4A216852F82110C86211461E
:105A2000206851F82000006820F00100216852F839
:105A3000211008607CBDF7B584B00E46174604AC53
:105A400002978DF8076008208DF805002068C0F3E4
:105A50000200009000208DF804008DF806000390ED
:105A600000250CE02368C3F38212C3F344232B44C4
:105A7000D9B22368C3F3C200FEF77AFB6D1C20681D
:105A8000C0F38430A842EDD86846FFF762FF206873
:105A9000C0F3020007B0F0BD0A4A52F82020126895
:105AA00022F48042074B53F820301A60B1B1054A06
:105AB00052F82020126822F40052024B53F8203092
:105AC0001A6015E0DC4F020004500200145002007E
:105AD000F0FFFC7FE84F0200013C1F00914A52F8A2
:105AE0002020126842F400528E4B53F820301A6086
:105AF00070478C4A52F82020126822F48042894B69
:105B000053F820301A6051B1864A52F820201268AA
:105B100022F48052834B53F820301A6009E0814A06
:105B200052F82020126842F480527E4B53F8203005
:105B30001A60704770B50B4623B1012B27D0022B9A
:105B400074D151E052B1774951F82010096B41F0FE
:105B50000041744C54F82040216309E0714951F828
:105B60002010096B21F000416E4C54F82040216355
:105B70006D4C215601F01F050124AC404D094FF03A
:105B8000E02606EB8505C5F8004100BF5BE052B199
:105B9000644951F82010096B41F00071614C54F8D0
:105BA0002040216309E05F4951F82010096B21F082
:105BB00000715C4C54F82040216352B1594951F8AE
:105BC0002010096B41F08071564C54F8204021633D
:105BD00009E0544951F82010096B21F08071514CB3
:105BE00054F8204021632EE052B14E4951F8201064
:105BF000096B41F400314B4C54F82040216309E01B
:105C0000484951F82010096B21F40031454C54F8F3
:105C1000204021635AB1434951F82010096B41F4E7
:105C20008031404C54F8204021630AE00AE03D49AD
:105C300051F82010096B21F480313A4C54F820407F
:105C4000216300E000BF00BF70BD11B1374A42F8C8
:105C500020107047F0B50446059D4FF0004606EA57
:105C6000C5764FF0E04707EA01773E4301279F40A2
:105C70004FF47C1C0CEA07473E431643294F57F864
:105C800024707E63274E56F82460366B16F0004F62
:105C900011D100BF234E56F82460F66A16F0004F6B
:105CA000F8D0204E56F82460F66A46F000461D4FA4
:105CB00057F82470FE621B4E56F82460B66BB0B2E3
:105CC000F0BD10B517480068C06A40F000401549A3
:105CD0000968C8621548006810B11449086880470F
:105CE00010BD10B50F484068C06A40F000400D4933
